{
  "_format": "hh-sol-artifact-1",
  "contractName": "AgentPaymentVault",
  "sourceName": "contracts/AgentPaymentVault.sol",
  "abi": [
    {
      "inputs": [
        {
          "internalType": "address",
          "name": "_usdc",
          "type": "address"
        },
        {
          "internalType": "address",
          "name": "_treasury",
          "type": "address"
        }
      ],
      "stateMutability": "nonpayable",
      "type": "constructor"
    },
    {
      "anonymous": false,
      "inputs": [
        {
          "indexed": true,
          "internalType": "address",
          "name": "fund",
          "type": "address"
        },
        {
          "indexed": true,
          "internalType": "address",
          "name": "bot",
          "type": "address"
        }
      ],
      "name": "BotAuthorized",
      "type": "event"
    },
    {
      "anonymous": false,
      "inputs": [
        {
          "indexed": true,
          "internalType": "address",
          "name": "fund",
          "type": "address"
        },
        {
          "indexed": true,
          "internalType": "address",
          "name": "bot",
          "type": "address"
        }
      ],
      "name": "BotRevoked",
      "type": "event"
    },
    {
      "anonymous": false,
      "inputs": [
        {
          "indexed": true,
          "internalType": "address",
          "name": "fund",
          "type": "address"
        },
        {
          "indexed": false,
          "internalType": "uint256",
          "name": "amount",
          "type": "uint256"
        },
        {
          "indexed": false,
          "internalType": "uint256",
          "name": "newBalance",
          "type": "uint256"
        }
      ],
      "name": "Deposited",
      "type": "event"
    },
    {
      "anonymous": false,
      "inputs": [
        {
          "indexed": true,
          "internalType": "address",
          "name": "fund",
          "type": "address"
        },
        {
          "indexed": false,
          "internalType": "uint256",
          "name": "dailyLimit",
          "type": "uint256"
        },
        {
          "indexed": false,
          "internalType": "uint256",
          "name": "perTransactionLimit",
          "type": "uint256"
        }
      ],
      "name": "LimitsUpdated",
      "type": "event"
    },
    {
      "anonymous": false,
      "inputs": [
        {
          "indexed": true,
          "internalType": "address",
          "name": "previousOwner",
          "type": "address"
        },
        {
          "indexed": true,
          "internalType": "address",
          "name": "newOwner",
          "type": "address"
        }
      ],
      "name": "OwnershipTransferred",
      "type": "event"
    },
    {
      "anonymous": false,
      "inputs": [
        {
          "indexed": false,
          "internalType": "uint256",
          "name": "oldFeeBps",
          "type": "uint256"
        },
        {
          "indexed": false,
          "internalType": "uint256",
          "name": "newFeeBps",
          "type": "uint256"
        }
      ],
      "name": "PlatformFeeUpdated",
      "type": "event"
    },
    {
      "anonymous": false,
      "inputs": [
        {
          "indexed": true,
          "internalType": "address",
          "name": "fund",
          "type": "address"
        },
        {
          "indexed": true,
          "internalType": "address",
          "name": "bot",
          "type": "address"
        },
        {
          "indexed": true,
          "internalType": "address",
          "name": "recipient",
          "type": "address"
        },
        {
          "indexed": false,
          "internalType": "uint256",
          "name": "amount",
          "type": "uint256"
        },
        {
          "indexed": false,
          "internalType": "uint256",
          "name": "fee",
          "type": "uint256"
        },
        {
          "indexed": false,
          "internalType": "uint256",
          "name": "purchaseId",
          "type": "uint256"
        },
        {
          "indexed": false,
          "internalType": "string",
          "name": "metadata",
          "type": "string"
        }
      ],
      "name": "PurchaseExecuted",
      "type": "event"
    },
    {
      "anonymous": false,
      "inputs": [
        {
          "indexed": true,
          "internalType": "address",
          "name": "oldTreasury",
          "type": "address"
        },
        {
          "indexed": true,
          "internalType": "address",
          "name": "newTreasury",
          "type": "address"
        }
      ],
      "name": "TreasuryUpdated",
      "type": "event"
    },
    {
      "anonymous": false,
      "inputs": [
        {
          "indexed": true,
          "internalType": "address",
          "name": "fund",
          "type": "address"
        },
        {
          "indexed": false,
          "internalType": "uint256",
          "name": "amount",
          "type": "uint256"
        },
        {
          "indexed": false,
          "internalType": "uint256",
          "name": "newBalance",
          "type": "uint256"
        }
      ],
      "name": "Withdrawn",
      "type": "event"
    },
    {
      "inputs": [],
      "name": "BPS_DIVISOR",
      "outputs": [
        {
          "internalType": "uint256",
          "name": "",
          "type": "uint256"
        }
      ],
      "stateMutability": "view",
      "type": "function"
    },
    {
      "inputs": [],
      "name": "MAX_PLATFORM_FEE_BPS",
      "outputs": [
        {
          "internalType": "uint256",
          "name": "",
          "type": "uint256"
        }
      ],
      "stateMutability": "view",
      "type": "function"
    },
    {
      "inputs": [
        {
          "internalType": "address",
          "name": "bot",
          "type": "address"
        }
      ],
      "name": "authorizeBot",
      "outputs": [],
      "stateMutability": "nonpayable",
      "type": "function"
    },
    {
      "inputs": [
        {
          "internalType": "uint256",
          "name": "amount",
          "type": "uint256"
        }
      ],
      "name": "deposit",
      "outputs": [],
      "stateMutability": "nonpayable",
      "type": "function"
    },
    {
      "inputs": [],
      "name": "getCurrentDay",
      "outputs": [
        {
          "internalType": "uint256",
          "name": "",
          "type": "uint256"
        }
      ],
      "stateMutability": "view",
      "type": "function"
    },
    {
      "inputs": [
        {
          "internalType": "address",
          "name": "fund",
          "type": "address"
        }
      ],
      "name": "getFundAccount",
      "outputs": [
        {
          "internalType": "uint256",
          "name": "balance",
          "type": "uint256"
        },
        {
          "internalType": "uint256",
          "name": "dailySpendingLimit",
          "type": "uint256"
        },
        {
          "internalType": "uint256",
          "name": "perTransactionLimit",
          "type": "uint256"
        },
        {
          "internalType": "uint256",
          "name": "todaySpent",
          "type": "uint256"
        },
        {
          "internalType": "uint256",
          "name": "lastResetDay",
          "type": "uint256"
        }
      ],
      "stateMutability": "view",
      "type": "function"
    },
    {
      "inputs": [
        {
          "internalType": "address",
          "name": "fund",
          "type": "address"
        }
      ],
      "name": "getFundPurchases",
      "outputs": [
        {
          "internalType": "uint256[]",
          "name": "",
          "type": "uint256[]"
        }
      ],
      "stateMutability": "view",
      "type": "function"
    },
    {
      "inputs": [
        {
          "internalType": "uint256",
          "name": "purchaseId",
          "type": "uint256"
        }
      ],
      "name": "getPurchase",
      "outputs": [
        {
          "components": [
            {
              "internalType": "address",
              "name": "fund",
              "type": "address"
            },
            {
              "internalType": "address",
              "name": "bot",
              "type": "address"
            },
            {
              "internalType": "address",
              "name": "recipient",
              "type": "address"
            },
            {
              "internalType": "uint256",
              "name": "amount",
              "type": "uint256"
            },
            {
              "internalType": "uint256",
              "name": "fee",
              "type": "uint256"
            },
            {
              "internalType": "uint256",
              "name": "timestamp",
              "type": "uint256"
            },
            {
              "internalType": "string",
              "name": "metadata",
              "type": "string"
            }
          ],
          "internalType": "struct AgentPaymentVault.Purchase",
          "name": "",
          "type": "tuple"
        }
      ],
      "stateMutability": "view",
      "type": "function"
    },
    {
      "inputs": [],
      "name": "getTotalPurchases",
      "outputs": [
        {
          "internalType": "uint256",
          "name": "",
          "type": "uint256"
        }
      ],
      "stateMutability": "view",
      "type": "function"
    },
    {
      "inputs": [
        {
          "internalType": "address",
          "name": "fund",
          "type": "address"
        },
        {
          "internalType": "address",
          "name": "bot",
          "type": "address"
        }
      ],
      "name": "isBotAuthorized",
      "outputs": [
        {
          "internalType": "bool",
          "name": "",
          "type": "bool"
        }
      ],
      "stateMutability": "view",
      "type": "function"
    },
    {
      "inputs": [],
      "name": "owner",
      "outputs": [
        {
          "internalType": "address",
          "name": "",
          "type": "address"
        }
      ],
      "stateMutability": "view",
      "type": "function"
    },
    {
      "inputs": [],
      "name": "platformFeeBps",
      "outputs": [
        {
          "internalType": "uint256",
          "name": "",
          "type": "uint256"
        }
      ],
      "stateMutability": "view",
      "type": "function"
    },
    {
      "inputs": [
        {
          "internalType": "address",
          "name": "fund",
          "type": "address"
        },
        {
          "internalType": "address",
          "name": "recipient",
          "type": "address"
        },
        {
          "internalType": "uint256",
          "name": "amount",
          "type": "uint256"
        },
        {
          "internalType": "string",
          "name": "metadata",
          "type": "string"
        }
      ],
      "name": "purchaseOnBehalf",
      "outputs": [
        {
          "internalType": "uint256",
          "name": "purchaseId",
          "type": "uint256"
        }
      ],
      "stateMutability": "nonpayable",
      "type": "function"
    },
    {
      "inputs": [
        {
          "internalType": "uint256",
          "name": "",
          "type": "uint256"
        }
      ],
      "name": "purchases",
      "outputs": [
        {
          "internalType": "address",
          "name": "fund",
          "type": "address"
        },
        {
          "internalType": "address",
          "name": "bot",
          "type": "address"
        },
        {
          "internalType": "address",
          "name": "recipient",
          "type": "address"
        },
        {
          "internalType": "uint256",
          "name": "amount",
          "type": "uint256"
        },
        {
          "internalType": "uint256",
          "name": "fee",
          "type": "uint256"
        },
        {
          "internalType": "uint256",
          "name": "timestamp",
          "type": "uint256"
        },
        {
          "internalType": "string",
          "name": "metadata",
          "type": "string"
        }
      ],
      "stateMutability": "view",
      "type": "function"
    },
    {
      "inputs": [],
      "name": "renounceOwnership",
      "outputs": [],
      "stateMutability": "nonpayable",
      "type": "function"
    },
    {
      "inputs": [
        {
          "internalType": "address",
          "name": "bot",
          "type": "address"
        }
      ],
      "name": "revokeBot",
      "outputs": [],
      "stateMutability": "nonpayable",
      "type": "function"
    },
    {
      "inputs": [
        {
          "internalType": "uint256",
          "name": "dailyLimit",
          "type": "uint256"
        },
        {
          "internalType": "uint256",
          "name": "perTransactionLimit",
          "type": "uint256"
        }
      ],
      "name": "setLimits",
      "outputs": [],
      "stateMutability": "nonpayable",
      "type": "function"
    },
    {
      "inputs": [
        {
          "internalType": "uint256",
          "name": "newFeeBps",
          "type": "uint256"
        }
      ],
      "name": "setPlatformFee",
      "outputs": [],
      "stateMutability": "nonpayable",
      "type": "function"
    },
    {
      "inputs": [
        {
          "internalType": "address",
          "name": "newTreasury",
          "type": "address"
        }
      ],
      "name": "setTreasury",
      "outputs": [],
      "stateMutability": "nonpayable",
      "type": "function"
    },
    {
      "inputs": [
        {
          "internalType": "address",
          "name": "newOwner",
          "type": "address"
        }
      ],
      "name": "transferOwnership",
      "outputs": [],
      "stateMutability": "nonpayable",
      "type": "function"
    },
    {
      "inputs": [],
      "name": "treasury",
      "outputs": [
        {
          "internalType": "address",
          "name": "",
          "type": "address"
        }
      ],
      "stateMutability": "view",
      "type": "function"
    },
    {
      "inputs": [],
      "name": "usdc",
      "outputs": [
        {
          "internalType": "contract IERC20",
          "name": "",
          "type": "address"
        }
      ],
      "stateMutability": "view",
      "type": "function"
    },
    {
      "inputs": [
        {
          "internalType": "uint256",
          "name": "amount",
          "type": "uint256"
        }
      ],
      "name": "withdraw",
      "outputs": [],
      "stateMutability": "nonpayable",
      "type": "function"
    }
  ],
  "bytecode": "0x60a060405260c86002553480156200001657600080fd5b5060405162001c9c38038062001c9c833981016040819052620000399162000192565b620000443362000125565b600180556001600160a01b038216620000a45760405162461bcd60e51b815260206004820152601460248201527f496e76616c69642055534443206164647265737300000000000000000000000060448201526064015b60405180910390fd5b6001600160a01b038116620000fc5760405162461bcd60e51b815260206004820152601860248201527f496e76616c69642074726561737572792061646472657373000000000000000060448201526064016200009b565b6001600160a01b03918216608052600380546001600160a01b03191691909216179055620001ca565b600080546001600160a01b038381166001600160a01b0319831681178455604051919092169283917f8be0079c531659141344cd1fd0a4f28419497f9722a3daafe3b4186f6b6457e09190a35050565b80516001600160a01b03811681146200018d57600080fd5b919050565b60008060408385031215620001a657600080fd5b620001b18362000175565b9150620001c16020840162000175565b90509250929050565b608051611a9a62000202600039600081816101fa015281816106220152818161070401528181610ad401526110830152611a9a6000f3fe608060405234801561001057600080fd5b506004361061014d5760003560e01c8063715018a6116100c3578063bfcb2b331161007c578063bfcb2b33146102dd578063c4590d3f146102f0578063d0d1704914610303578063ea04f15514610372578063f0f442601461037a578063f2fde38b1461038d57600080fd5b8063715018a6146102625780638392fe311461026a5780638d01513c146102905780638da5cb5b1461029957806398f01e2c146102aa578063b6b55f25146102ca57600080fd5b80632e1a7d4d116101155780632e1a7d4d146101c25780633742a9f7146101d55780633e413bee146101f55780633e6968b61461023457806352f4955a1461023c57806361d027b31461024f57600080fd5b8063108813741461015257806312e8e2c31461017857806313263c7a1461018d578063191fe1ed146101b057806322dcd13e146101b9575b600080fd5b610165610160366004611568565b6103a0565b6040519081526020015b60405180910390f35b61018b610186366004611603565b610961565b005b6101a061019b36600461161c565b6109ef565b604051901515815260200161016f565b61016561271081565b61016560025481565b61018b6101d0366004611603565b610a23565b6101e86101e3366004611603565b610bd7565b60405161016f9190611695565b61021c7f000000000000000000000000000000000000000000000000000000000000000081565b6040516001600160a01b03909116815260200161016f565b610165610d91565b61018b61024a366004611703565b610da5565b60035461021c906001600160a01b031681565b61018b610eb3565b61027d610278366004611603565b610ec7565b60405161016f9796959493929190611725565b6101656103e881565b6000546001600160a01b031661021c565b6102bd6102b8366004611703565b610fb1565b60405161016f9190611777565b61018b6102d8366004611603565b61101d565b61018b6102eb366004611703565b611182565b61018b6102fe3660046117bb565b61123c565b61034a610311366004611703565b6001600160a01b031660009081526004602081905260409091208054600182015460028301546003840154939094015491949093929190565b604080519586526020860194909452928401919091526060830152608082015260a00161016f565b600554610165565b61018b610388366004611703565b6112f3565b61018b61039b366004611703565b6113a3565b60006103aa611419565b6001600160a01b0385166103f95760405162461bcd60e51b8152602060048201526011602482015270125b9d985b1a59081c9958da5c1a595b9d607a1b60448201526064015b60405180910390fd5b600084116104195760405162461bcd60e51b81526004016103f0906117dd565b6001600160a01b0386166000908152600460209081526040808320338452600581019092529091205460ff166104865760405162461bcd60e51b8152602060048201526012602482015271109bdd081b9bdd08185d5d1a1bdc9a5e995960721b60448201526064016103f0565b61048f81611472565b6002810154156104ed5780600201548511156104ed5760405162461bcd60e51b815260206004820152601d60248201527f45786365656473207065722d7472616e73616374696f6e206c696d697400000060448201526064016103f0565b60018101541561055057806001015485826003015461050c919061182a565b11156105505760405162461bcd60e51b8152602060048201526013602482015272115e18d959591cc819185a5b1e481b1a5b5a5d606a1b60448201526064016103f0565b600061271060025487610563919061183d565b61056d9190611854565b9050600061057b828861182a565b905080836000015410156105c85760405162461bcd60e51b8152602060048201526014602482015273496e73756666696369656e742062616c616e636560601b60448201526064016103f0565b808360000160008282546105dc9190611876565b92505081905550868360030160008282546105f7919061182a565b909155505060405163a9059cbb60e01b81526001600160a01b038981166004830152602482018990527f0000000000000000000000000000000000000000000000000000000000000000169063a9059cbb906044016020604051808303816000875af115801561066b573d6000803e3d6000fd5b505050506040513d601f19601f8201168201806040525081019061068f9190611889565b6106db5760405162461bcd60e51b815260206004820152601c60248201527f5472616e7366657220746f20726563697069656e74206661696c65640000000060448201526064016103f0565b60035460405163a9059cbb60e01b81526001600160a01b039182166004820152602481018490527f00000000000000000000000000000000000000000000000000000000000000009091169063a9059cbb906044016020604051808303816000875af115801561074f573d6000803e3d6000fd5b505050506040513d601f19601f820116820180604052508101906107739190611889565b6107b55760405162461bcd60e51b8152602060048201526013602482015272119959481d1c985b9cd9995c8819985a5b1959606a1b60448201526064016103f0565b600580549050935060056040518060e001604052808b6001600160a01b03168152602001336001600160a01b031681526020018a6001600160a01b0316815260200189815260200184815260200142815260200188888080601f0160208091040260200160405190810160405280939291908181526020018383808284376000920182905250939094525050835460018082018655948252602091829020845160079092020180546001600160a01b03199081166001600160a01b039384161782559285015195810180548416968316969096179095556040840151600286018054909316911617905550606081015160038301556080810151600483015560a0810151600583015560c081015190919060068201906108d5908261194a565b5050506001600160a01b03808a1660008181526006602090815260408083208054600181018255908452919092200187905551918a16913391907fb6cb7c1dbabbf41acb7153d5ff86ce4f81ebce791711fe1d5dbb4d8c89ded40b90610944908c9088908b908e908e90611a0a565b60405180910390a450505061095860018055565b95945050505050565b6109696114a2565b6103e88111156109aa5760405162461bcd60e51b815260206004820152600c60248201526b08ccaca40e8dede40d0d2ced60a31b60448201526064016103f0565b600280549082905560408051828152602081018490527fd347e206f25a89b917fc9482f1a2d294d749baa4dc9bde7fb495ee11fe491643910160405180910390a15050565b6001600160a01b038083166000908152600460209081526040808320938516835260059093019052205460ff165b92915050565b610a2b611419565b33600090815260046020526040902081610a575760405162461bcd60e51b81526004016103f0906117dd565b8054821115610a9f5760405162461bcd60e51b8152602060048201526014602482015273496e73756666696369656e742062616c616e636560601b60448201526064016103f0565b81816000016000828254610ab39190611876565b909155505060405163a9059cbb60e01b8152336004820152602481018390527f00000000000000000000000000000000000000000000000000000000000000006001600160a01b03169063a9059cbb906044016020604051808303816000875af1158015610b25573d6000803e3d6000fd5b505050506040513d601f19601f82011682018060405250810190610b499190611889565b610b875760405162461bcd60e51b815260206004820152600f60248201526e151c985b9cd9995c8819985a5b1959608a1b60448201526064016103f0565b805460405133917f92ccf450a286a957af52509bc1c9939d1a6a481783e142e41e2499f0bb66ebc691610bc291868252602082015260400190565b60405180910390a250610bd460018055565b50565b610c326040518060e0016040528060006001600160a01b0316815260200160006001600160a01b0316815260200160006001600160a01b03168152602001600081526020016000815260200160008152602001606081525090565b6005548210610c795760405162461bcd60e51b8152602060048201526013602482015272125b9d985b1a59081c1d5c98da185cd9481251606a1b60448201526064016103f0565b60058281548110610c8c57610c8c611a4e565b60009182526020918290206040805160e081018252600790930290910180546001600160a01b03908116845260018201548116948401949094526002810154909316908201526003820154606082015260048201546080820152600582015460a082015260068201805491929160c084019190610d08906118c1565b80601f0160208091040260200160405190810160405280929190818152602001828054610d34906118c1565b8015610d815780601f10610d5657610100808354040283529160200191610d81565b820191906000526020600020905b815481529060010190602001808311610d6457829003601f168201915b5050505050815250509050919050565b6000610da06201518042611854565b905090565b6001600160a01b038116610df15760405162461bcd60e51b8152602060048201526013602482015272496e76616c696420626f74206164647265737360681b60448201526064016103f0565b3360009081526004602090815260408083206001600160a01b0385168452600581019092529091205460ff1615610e635760405162461bcd60e51b8152602060048201526016602482015275109bdd08185b1c9958591e48185d5d1a1bdc9a5e995960521b60448201526064016103f0565b6001600160a01b0382166000818152600583016020526040808220805460ff191660011790555133917f078d25893e57aa53b1392c7ddd72fd4a82ae6eff1cd4a797c2067c786484c2c391a35050565b610ebb6114a2565b610ec560006114fc565b565b60058181548110610ed757600080fd5b600091825260209091206007909102018054600182015460028301546003840154600485015460058601546006870180546001600160a01b03978816995095871697969094169592949193909291610f2e906118c1565b80601f0160208091040260200160405190810160405280929190818152602001828054610f5a906118c1565b8015610fa75780601f10610f7c57610100808354040283529160200191610fa7565b820191906000526020600020905b815481529060010190602001808311610f8a57829003601f168201915b5050505050905087565b6001600160a01b03811660009081526006602090815260409182902080548351818402810184019094528084526060939283018282801561101157602002820191906000526020600020905b815481526020019060010190808311610ffd575b50505050509050919050565b611025611419565b600081116110455760405162461bcd60e51b81526004016103f0906117dd565b3360008181526004602081905260409182902091516323b872dd60e01b81529081019290925230602483015260448201839052906001600160a01b037f000000000000000000000000000000000000000000000000000000000000000016906323b872dd906064016020604051808303816000875af11580156110cc573d6000803e3d6000fd5b505050506040513d601f19601f820116820180604052508101906110f09190611889565b61112e5760405162461bcd60e51b815260206004820152600f60248201526e151c985b9cd9995c8819985a5b1959608a1b60448201526064016103f0565b81816000016000828254611142919061182a565b9091555050805460405133917f73a19dd210f1a7f902193214c0ee91dd35ee5b4d920cba8d519eca65a7b488ca91610bc291868252602082015260400190565b3360009081526004602090815260408083206001600160a01b0385168452600581019092529091205460ff166111ef5760405162461bcd60e51b8152602060048201526012602482015271109bdd081b9bdd08185d5d1a1bdc9a5e995960721b60448201526064016103f0565b6001600160a01b0382166000818152600583016020526040808220805460ff191690555133917fc0adff33fd2287593bb4b29c045738fb541d825b7ef4f12152d82821c8bf500f91a35050565b8181111580611249575081155b6112955760405162461bcd60e51b815260206004820181905260248201527f5065722d7478206c696d69742065786365656473206461696c79206c696d697460448201526064016103f0565b336000818152600460209081526040918290206001810186905560028101859055825186815291820185905292917fdc679119ed8c7f3e58938f78968a044a7d8f8ab9d80398506c4289c318a5e3ee910160405180910390a2505050565b6112fb6114a2565b6001600160a01b0381166113515760405162461bcd60e51b815260206004820152601860248201527f496e76616c69642074726561737572792061646472657373000000000000000060448201526064016103f0565b600380546001600160a01b038381166001600160a01b0319831681179093556040519116919082907f4ab5be82436d353e61ca18726e984e561f5c1cc7c6d38b29d2553c790434705a90600090a35050565b6113ab6114a2565b6001600160a01b0381166114105760405162461bcd60e51b815260206004820152602660248201527f4f776e61626c653a206e6577206f776e657220697320746865207a65726f206160448201526564647265737360d01b60648201526084016103f0565b610bd4816114fc565b60026001540361146b5760405162461bcd60e51b815260206004820152601f60248201527f5265656e7472616e637947756172643a207265656e7472616e742063616c6c0060448201526064016103f0565b6002600155565b60006114816201518042611854565b9050816004015481111561149e5760006003830155600482018190555b5050565b6000546001600160a01b03163314610ec55760405162461bcd60e51b815260206004820181905260248201527f4f776e61626c653a2063616c6c6572206973206e6f7420746865206f776e657260448201526064016103f0565b600080546001600160a01b038381166001600160a01b0319831681178455604051919092169283917f8be0079c531659141344cd1fd0a4f28419497f9722a3daafe3b4186f6b6457e09190a35050565b80356001600160a01b038116811461156357600080fd5b919050565b60008060008060006080868803121561158057600080fd5b6115898661154c565b94506115976020870161154c565b935060408601359250606086013567ffffffffffffffff808211156115bb57600080fd5b818801915088601f8301126115cf57600080fd5b8135818111156115de57600080fd5b8960208285010111156115f057600080fd5b9699959850939650602001949392505050565b60006020828403121561161557600080fd5b5035919050565b6000806040838503121561162f57600080fd5b6116388361154c565b91506116466020840161154c565b90509250929050565b6000815180845260005b8181101561167557602081850181015186830182015201611659565b506000602082860101526020601f19601f83011685010191505092915050565b60208152600060018060a01b038084511660208401528060208501511660408401528060408501511660608401525060608301516080830152608083015160a083015260a083015160c083015260c083015160e0808401526116fb61010084018261164f565b949350505050565b60006020828403121561171557600080fd5b61171e8261154c565b9392505050565b600060018060a01b03808a16835280891660208401528088166040840152508560608301528460808301528360a083015260e060c083015261176a60e083018461164f565b9998505050505050505050565b6020808252825182820181905260009190848201906040850190845b818110156117af57835183529284019291840191600101611793565b50909695505050505050565b600080604083850312156117ce57600080fd5b50508035926020909101359150565b6020808252601d908201527f416d6f756e74206d7573742062652067726561746572207468616e2030000000604082015260600190565b634e487b7160e01b600052601160045260246000fd5b80820180821115610a1d57610a1d611814565b8082028115828204841417610a1d57610a1d611814565b60008261187157634e487b7160e01b600052601260045260246000fd5b500490565b81810381811115610a1d57610a1d611814565b60006020828403121561189b57600080fd5b8151801515811461171e57600080fd5b634e487b7160e01b600052604160045260246000fd5b600181811c908216806118d557607f821691505b6020821081036118f557634e487b7160e01b600052602260045260246000fd5b50919050565b601f82111561194557600081815260208120601f850160051c810160208610156119225750805b601f850160051c820191505b818110156119415782815560010161192e565b5050505b505050565b815167ffffffffffffffff811115611964576119646118ab565b6119788161197284546118c1565b846118fb565b602080601f8311600181146119ad57600084156119955750858301515b600019600386901b1c1916600185901b178555611941565b600085815260208120601f198616915b828110156119dc578886015182559484019460019091019084016119bd565b50858210156119fa5787850151600019600388901b60f8161c191681555b5050505050600190811b01905550565b85815284602082015283604082015260806060820152816080820152818360a0830137600081830160a090810191909152601f909201601f19160101949350505050565b634e487b7160e01b600052603260045260246000fdfea26469706673582212202735accf3eb059c34fe3212a3ef255e6123e129aed3b712f9116b1394cfaa06864736f6c63430008140033",
  "linkReferences": {},
  "deployedLinkReferences": {}
}